:100000000C9434000C9451000C9451000C94510049
:100010000C9451000C9451000C9451000C9451001C
:100020000C9451000C9451000C9451000C9451000C
:100030000C9451000C9451000C9451000C945100FC
:100040000C9451000C9451000C94DC0B0C942E0C6D
:100050000C9451000C9451000C9451000C945100DC
:100060000C9451000C94510011241FBECFEFD8E026
:10007000DEBFCDBF14E0A0E0B1E0ECE4FEE202C0E0
:1000800005900D92A230B107D9F714E0A2E0B4E0D8
:1000900001C01D92AA36B107E1F70E94D8010C9465
:1000A00024170C940000CF93DF93CDB7DEB787E61B
:1000B00090E00E94710C80E091E09093670480933F
:1000C0006604DF91CF9108950F931F93CF93DF9331
:1000D000CDB7DEB7A2970FB6F894DEBF0FBECDBF87
:1000E0009AA389A38AE090E098A38F8F89A19AA10F
:1000F0009A8389833FC10E949A07292F2F938F9358
:1001000084E191E0892F8F9384E191E08F930E94A5
:1001100061140F900F900F900F9089819A81FC01CC
:1001200080819181292F2F938F938BE291E0892FEA
:100130008F938BE291E08F930E9461140F900F9048
:100140000F900F908F8D98A1292F2F938F938BE372
:1001500091E0892F8F938BE391E08F930E9461143C
:100160000F900F900F900F9085E290E029813A81D7
:10017000F901208131812F77FC01208380E090E01C
:10018000AAE7B3E48B839C83AD83BE8320E030E099
:100190004AE755E46B817C818D819E810E94700FBE
:1001A000DC01CB018F839887A987BA8720E030E0F4
:1001B00040E85FE36F81788589859A850E94B31056
:1001C00088232CF481E090E09C878B8742C020E05C
:1001D0003FEF4FE757E46F81788589859A850E94C4
:1001E0005510181664F520E030E040E251E46B81D0
:1001F0007C818D819E810E94700FDC01CB01BC014E
:10020000CD010E948B0DDC01CB019C878B8712C036
:1002100080E991E09E878D878D859E858C01C80140
:100220000197F1F78C011E870D878B859C850197BF
:100230009C878B878B859C85009751F717C06F81B2
:10024000788589859A850E948B0DDC01CB019C877E
:100250008B878B859C85988B8F878F8598898C0160
:10026000F8013197F1F78F01188B0F8785E290E045
:1002700025E230E0F901308120E12327FC012083D1
:1002800080E090E0AAE7B3E4898B9A8BAB8BBC8BC0
:1002900020E030E04AE755E469897A898B899C89B6
:1002A0000E94700FDC01CB018D8B9E8BAF8BB88FC2
:1002B00020E030E040E85FE36D897E898F89988D8A
:1002C0000E94B31088232CF481E090E09A8F898FEC
:1002D00042C020E03FEF4FE757E46D897E898F8968
:1002E000988D0E945510181664F520E030E040E229
:1002F00051E469897A898B899C890E94700FDC019D
:10030000CB01BC01CD010E948B0DDC01CB019A8F8A
:10031000898F12C080E991E09C8F8B8F8B8D9C8D93
:100320008C01C8010197F1F78C011C8F0B8F898D0F
:100330009A8D01979A8F898F898D9A8D009751F7A1
:1003400017C06D897E898F89988D0E948B0DDC0185
:10035000CB019A8F898F898D9A8D9E8F8D8F8D8DF0
:100360009E8D8C01F8013197F1F78F011E8F0D8F53
:100370000E944B078F8D98A121E0009709F420E09F
:10038000019798A38F8F222309F0B5CE89819A8196
:10039000FC01808191810E942608A2960FB6F894F4
:1003A000DEBF0FBECDBFDF91CF911F910F9108959A
:1003B0000F931F93CF93DF93CDB7DEB7A0970FB600
:1003C000F894DEBF0FBECDBF0E945300789481E544
:1003D00091E00E94781485E290E0FC0110828FE5A4
:1003E00091E00E9478140E94570B89E791E00E94E7
:1003F000781485E090E09C8F8B8F86E090E09E8F54
:100400008D8F87E090E098A38F8FCE014B969C0153
:1004100040E850E063E070E084E690E00E9441062E
:100420009A8389838EE791E00E947814CE014D96DD
:100430009C0140E850E063E070E084E690E00E94B8
:1004400041069C838B838FE891E00E947814CE0153
:100450004F969C0140E850E062E070E084E690E056
:100460000E9441069E838D8380EA91E00E94781469
:100470009E012B5E3F4F89819A81B9010E94A90795
:100480009E01295E3F4F8B819C81B9010E94A90783
:100490009E01275E3F4F8D819E81B9010E94A90771
:1004A00081EB91E00E94781480E090E0AAE7B3E449
:1004B0008F839887A987BA8720E030E04AE755E420
:1004C0006F81788589859A850E94700FDC01CB0148
:1004D0008B879C87AD87BE8720E030E040E85FE3F4
:1004E0006B857C858D859E850E94B31088232CF4B6
:1004F00081E090E0988B8F8742C020E03FEF4FE78C
:1005000057E46B857C858D859E850E945510181655
:1005100064F520E030E040E251E46F817885898520
:100520009A850E94700FDC01CB01BC01CD010E94B5
:100530008B0DDC01CB01988B8F8712C080E991E095
:100540009A8B898B89899A898C01C8010197F1F767
:100550008C011A8B098B8F8598890197988B8F87CF
:100560008F859889009751F717C06B857C858D859D
:100570009E850E948B0DDC01CB01988B8F878F8528
:1005800098899C8B8B8B8B899C898C01F801319786
:10059000F1F78F011C8B0B8B85E290E0FC01108240
:1005A0007FCF9C01CB0130930304209302040F9270
:1005B0000FB6F8940F921F9211242F923F924F92F0
:1005C0005F926F927F928F929F92AF92BF92CF92E3
:1005D000DF92EF92FF920F931F932F933F934F93CE
:1005E0005F936F937F938F939F93AF93BF93CF93BB
:1005F000DF93EF93FF93A0910204B09103040DB633
:100600000D920EB60D92009709F42FC0909303043B
:1006100080930204A0910204B0910304CD91CDBF58
:10062000DD91DEBFFF91EF91DF91CF91BF91AF914F
:100630009F918F917F916F915F914F913F912F91FA
:100640001F910F91FF90EF90DF90CF90BF90AF90F0
:100650009F908F907F906F905F904F903F902F90E2
:100660001F900F900FBE0F9004C08FEB91E00E947F
:1006700078140895CF93DF9300D000D000D0CDB789
:10068000DEB79C838B837E836D831A8219828B8174
:100690009C81FC018481882301F18B819C81FC0178
:1006A000808191819A83898312C089819A81FC011A
:1006B0008281282F30E08D819E812817390761F0D3
:1006C00089819A81FC01838594859A8389838981B4
:1006D0009A81009751F701C0000089819A8126967E
:1006E0000FB6F894DEBF0FBECDBFDF91CF91089556
:1006F000CF93DF9300D000D0CDB7DEB79C838B8340
:100700001A8219828B819C81FC018481882309F4DF
:1007100056C08B819C81FC018481813001F58B81E5
:100720009C81FC01828193819A83898389819A814A
:10073000FC011686158689819A81FC011486138630
:100740008B819C81FC01118210828B819C81FC0138
:10075000138212828B819C81FC01148230C08B81B8
:100760009C81FC01828193819A8389838B819C8106
:10077000FC0182819381FC01258536858B819C81DA
:10078000FC01338322838B819C81FC0182819381D4
:10079000FC011486138689819A81FC0116861586D0
:1007A00089819A81FC01148613868B819C81FC01CE
:1007B0008481282F21508B819C81FC012483898195
:1007C0009A810F900F900F900F90DF91CF91089525
:1007D000CF93DF9300D000D0CDB7DEB79C838B835F
:1007E0001A8219828B819C81FC018481882309F4FF
:1007F00054C08B819C81FC018481813001F58B8107
:100800009C81FC01808191819A83898389819A816D
:10081000FC011686158689819A81FC01148613864F
:100820008B819C81FC01118210828B819C81FC0157
:10083000138212828B819C81FC0114822EC08B81D9
:100840009C81FC0180819181FC01238534858B8111
:100850009C81FC01318320838B819C81FC01808100
:100860009181FC01858596859A8389838B819C8102
:10087000FC0180819181FC011686158689819A810F
:10088000FC01148613868B819C81FC018481282FB6
:1008900021508B819C81FC01248389819A810F9056
:1008A0000F900F900F90DF91CF910895CF93DF932A
:1008B00000D000D000D0CDB7DEB79C838B837E8381
:1008C0006D831A8219828B819C81FC01848188232B
:1008D00009F46FC08B819C81FC01808191819A8396
:1008E000898312C089819A81FC018281282F30E09E
:1008F0008D819E812817390761F089819A81FC01D9
:10090000838594859A83898389819A81009751F799
:1009100001C0000089819A81009709F44AC0898149
:100920009A81FC0185859685009739F48B819C819D
:100930000E94E8039A8389833CC089819A81FC01E3
:1009400083859485009739F48B819C810E9478037C
:100950009A8389832EC089819A81FC01838594853D
:1009600029813A81F90125853685FC01368725875D
:1009700089819A81FC018585968529813A81F901D1
:1009800023853485FC013487238789819A81FC0182
:100990001686158689819A81FC01148613868B81BF
:1009A0009C81FC018481282F21508B819C81FC013A
:1009B000248389819A8126960FB6F894DEBF0FBEF4
:1009C000CDBFDF91CF910895CF93DF9300D000D0BA
:1009D00000D0CDB7DEB79C838B837E836D831A8274
:1009E00019828B819C81FC0184818823C9F48B81CD
:1009F0009C812D813E81FC01318320838B819C81F0
:100A00002D813E81FC01338322838B819C81FC01FB
:100A10008481282F2F5F8B819C81FC01248374C0EB
:100A20008D819E81FC018581853041F42D813E813F
:100A30008B819C81B9010E94E70566C08B819C81F6
:100A4000FC01828193819A83898311C089819A8173
:100A5000FC0125818D819E81FC018581821760F4D6
:100A600089819A81FC01858596859A83898389810C
:100A70009A81009759F701C0000089819A810097F7
:100A8000E1F189819A81FC0183859485009741F485
:100A90002D813E818B819C81B9010E94E70534C084
:100AA00089819A81FC01238534858D819E81FC0199
:100AB0003487238789819A81FC01838594852D81E0
:100AC0003E81FC013687258789819A812D813E816F
:100AD000FC01348723878D819E8129813A81FC0125
:100AE000368725878B819C81FC018481282F2F5F8D
:100AF0008B819C81FC01248307C02D813E818B81E9
:100B00009C81B9010E948D0526960FB6F894DEBF30
:100B10000FBECDBFDF91CF910895CF93DF9300D06B
:100B200000D0CDB7DEB79A8389837C836B838981BC
:100B30009A81FC0184818823C9F489819A812B815F
:100B40003C81FC013183208389819A812B813C8106
:100B5000FC013383228389819A81FC018481282FBF
:100B60002F5F89819A81FC0124832AC08B819C811B
:100B7000FC011686158689819A81FC0120813181CC
:100B80008B819C81FC013487238789819A81FC01B8
:100B9000808191812B813C81FC0136872587898169
:100BA0009A812B813C81FC013183208389819A8148
:100BB000FC018481282F2F5F89819A81FC01248385
:100BC0000F900F900F900F90DF91CF910895CF93DA
:100BD000DF9300D000D0CDB7DEB79A8389837C83C2
:100BE0006B8389819A81FC0184818823C9F489817E
:100BF0009A812B813C81FC013183208389819A81F8
:100C00002B813C81FC013383228389819A81FC0101
:100C10008481282F2F5F89819A81FC0124832AC037
:100C20008B819C81FC011486138689819A81FC0149
:100C3000228133818B819C81FC01368725878981C4
:100C40009A81FC01828193812B813C81FC01348754
:100C5000238789819A812B813C81FC013383228304
:100C600089819A81FC018481282F2F5F89819A8153
:100C7000FC0124830F900F900F900F90DF91CF9184
:100C80000895CF93DF93CDB7DEB72F970FB6F894C3
:100C9000DEBF0FBECDBF998788877B876A875D8758
:100CA0004C873F872E871A821982809152048730A1
:100CB00018F08FEF9FEFE6C08FE090E00E942A13BC
:100CC0009D838C83209152048C819D81FC01228321
:100CD000822F8F5F809352048C819D81FC018281E1
:100CE000882F90E0880F991F8D5A9B4F2C813D8152
:100CF000FC01318320838C819D8121E0FC012383D1
:100D00008C819D81FC01178216828C819D81FC0162
:100D1000118610868C819D81FC0112868C819D81BB
:100D2000FC01168615868C819D81FC011486138634
:100D30002A858C819D81FC01258380914B049091B3
:100D40004C049A83898320914B0430914C048C8508
:100D50009D85919581959109820F931F90934C04E5
:100D600080934B04888599859F838E832E8189810A
:100D70009A81FC01208389819A8101979A838983D2
:100D80008E819F81892F99279F838E832E818981D0
:100D90009A81FC01208389819A8101979A838983B2
:100DA00089819A81FC01108289819A8101979A83B5
:100DB000898389819A8120E8FC01208389819A8135
:100DC00001979A83898389819A81FC0110828981A4
:100DD0009A8101979A83898382E08B830CC08981F1
:100DE0009A81FC01108289819A8101979A83898373
:100DF0008B818F5F8B838B81883188F38E859F8574
:100E00009F838E832E8189819A81FC012083898131
:100E10009A8101979A8389838E819F81892F99274F
:100E20009F838E832E8189819A81FC012083898111
:100E30009A8101979A8389838AE18B830CC0898187
:100E40009A81FC01108289819A8101979A83898312
:100E50008B818F5F8B838B81803288F38C819D8126
:100E600029813A81FC01318320838C819D81BC01E1
:100E70008DE494E00E94E4048C819D81FC018281D8
:100E8000882F90E02F960FB6F894DEBF0FBECDBF2F
:100E9000DF91CF910895CF93DF9300D0CDB7DEB728
:100EA00080915104882309F440C0809149049091B5
:100EB0004A04FC01258180914D0490914E04FC016F
:100EC0008581281770F18091490490914A049A8392
:100ED000898389819A8121E0FC0123838DE494E058
:100EE0000E94E80390934A04809349048091490446
:100EF00090914A04FC01138289819A81BC018DE49E
:100F000094E00E94E40488EE91E00E94781420911D
:100F1000490430914A0489819A81B9010E94D10221
:100F200004C08EEE91E00E9478140F900F90DF9134
:100F3000CF910895CF93DF93CDB7DEB78091490469
:100F400090914A04FC018281882F90E0DF91CF913B
:100F50000895CF93DF9300D000D000D0CDB7DEB797
:100F60009C838B837E836D838B819C81880F991FEB
:100F70008D5A9B4FFC0180819181009709F45BC0E1
:100F80008B819C81880F991F8D5A9B4FFC0180811A
:100F90009181FC0183818330C9F1809151048823C0
:100FA000A9F18091490490914A049A8389838981A7
:100FB0009A8122E0FC0123838DE494E00E94E803FF
:100FC00090934A04809349048091490490914A0483
:100FD000FC0113828B819C81880F991F8D5A9B4F36
:100FE000FC0180819181069629813A81B9010E9494
:100FF000E70588E292E00E9478142091490430913C
:101000004A0489819A81B9010E94D1028B819C8115
:10101000880F991F8D5A9B4FFC0180819181FC01A3
:101020008481282F30E08D819E81FC0131832083D3
:1010300080E090E002C08FEF9FEF26960FB6F89405
:10104000DEBF0FBECDBFDF91CF910895CF93DF9369
:1010500000D000D000D0CDB7DEB79E838D838091C5
:10106000490490914A049A8389832D8189819A81C8
:10107000FC01248389819A8123E0FC01238313C02E
:1010800089819A8106960E94E8039C838B838B81D9
:101090009C8121E0FC0123838B819C81BC018DE438
:1010A00094E00E94E40489819A81FC01828588236E
:1010B00039F7809151048823D9F08DE494E00E949F
:1010C000E80390934A0480934904809149049091E5
:1010D0004A04FC0113828DE292E00E947814209170
:1010E000490430914A0489819A81B9010E94D10250
:1010F00026960FB6F894DEBF0FBECDBFDF91CF911D
:101100000895CF93DF9300D0CDB7DEB79A8389835C
:1011100089819A818130910569F08130910538F09B
:101120008230910551F08330910551F00CC083E479
:1011300092E00BC08BE492E008C081E592E005C02C
:1011400089E592E002C083E692E00F900F90DF9174
:10115000CF910895CF93DF9300D0CDB7DEB79A83B8
:10116000898389819A8182309105C9F08330910504
:1011700030F4009771F08130910571F01CC084301B
:10118000910599F08430910568F08530910581F0E2
:1011900012C089E692E011C087E892E00EC08FE9A4
:1011A00092E00BC08CEB92E008C083ED92E005C0AA
:1011B00080EF92E002C083E692E00F900F90DF9103
:1011C000CF9108950F931F93CF93DF9300D000D05A
:1011D000CDB7DEB79C838B838B819C81FC018081A2
:1011E00091819A8389833AC089819A81FC018381A4
:1011F000882F90E00E9481088C0189819A81FC01EE
:101200008581882F90E00E94AA089C0189819A819B
:10121000FC018281882F90E0412F4F93402F4F9304
:10122000432F4F932F93292F2F938F9387E093E092
:10123000892F8F9387E093E08F930E9461148DB77D
:101240009EB708960FB6F894DEBF0FBECDBF89815A
:101250009A81FC01838594859A83898389819A8107
:10126000009711F60F900F900F900F90DF91CF9194
:101270001F910F910895CF93DF9300D0CDB7DEB7C4
:101280008DE293E00E94781480915104882309F440
:1012900068C08091490490914A04FC0125818091A5
:1012A0004D0490914E04FC018581281708F455C027
:1012B00088E393E00E9478148091490490914A0455
:1012C0009A83898389819A8121E0FC0123838DE4BB
:1012D00094E00E94E80390934A048093490480912B
:1012E000490490914A04FC01138289819A81BC01CE
:1012F0008DE494E00E94E40484E793E0892F8F93C7
:1013000084E793E08F930E9461140F900F908DE417
:1013100094E00E94E2088091490490914A04FC0103
:101320008281882F90E0292F2F938F938CE893E070
:10133000892F8F938CE893E08F930E9461140F9014
:101340000F900F900F902091490430914A048981A9
:101350009A81B9010E94D10204C08CE993E00E94F5
:1013600078140F900F90DF91CF910895CF93DF9372
:10137000CDB7DEB780914D0490914E04FC0185817C
:10138000882F90E0292F2F938F938FEC93E0892F54
:101390008F938FEC93E08F930E9461140F900F90C6
:1013A0000F900F90DF91CF9108950F931F93CF93DC
:1013B000DF93CDB7DEB760970FB6F894DEBF0FBEF0
:1013C000CDBF988B8F8780EF93E00E94781480E0E8
:1013D00090E0AAE7B3E489839A83AB83BC8320E0DF
:1013E00030E04AE755E469817A818B819C810E94D3
:1013F000700FDC01CB018D839E83AF83B88720E023
:1014000030E040E85FE36D817E818F8198850E94A6
:10141000B31088232CF481E090E09A87898742C03A
:1014200020E03FEF4FE757E46D817E818F81988503
:101430000E945510181664F520E030E040E251E4B7
:1014400069817A818B819C810E94700FDC01CB01C4
:10145000BC01CD010E948B0DDC01CB019A878987ED
:1014600012C080E991E09C878B878B859C858C01DD
:10147000C8010197F1F78C011C870B8789859A8534
:1014800001979A87898789859A85009751F717C0B0
:101490006D817E818F8198850E948B0DDC01CB014F
:1014A0009A87898789859A859E878D878D859E8570
:1014B0008C01C8010197F1F78C011E870D870E94EE
:1014C0004B0781CFCF93DF93CDB7DEB72F970FB602
:1014D000F894DEBF0FBECDBF998788877B876A8768
:1014E0005D874C873F872E871A821982809152042C
:1014F000873018F08FEF9FEFD1C08FE090E00E940F
:101500002A139D838C83209152048C819D81FC0140
:101510002283822F8F5F809352048C819D81FC01F6
:101520008281882F90E0880F991F8D5A9B4F2C81C4
:101530003D81FC01318320838C819D8121E0FC0170
:1015400023838C819D81FC01178216828C819D8171
:10155000FC01118610868C819D81FC0112868C8194
:101560009D81FC01168615868C819D81FC01148667
:1015700013862A858C819D81FC0125838885998528
:101580009F838E832E8189819A81FC0120838981AA
:101590009A8101979A8389838E819F81892F9927C8
:1015A0009F838E832E8189819A81FC01208389818A
:1015B0009A8101979A83898389819A81FC0110829B
:1015C00089819A8101979A83898389819A8120E808
:1015D000FC01208389819A8101979A83898389817B
:1015E0009A81FC01108289819A8101979A8389836B
:1015F00082E08B830CC089819A81FC0110828981F1
:101600009A8101979A8389838B818F5F8B838B81EA
:10161000883188F38E859F859F838E832E81898173
:101620009A81FC01208389819A8101979A83898319
:101630008E819F81892F99279F838E832E81898117
:101640009A81FC01208389819A8101979A838983F9
:101650008AE18B830CC089819A81FC011082898187
:101660009A8101979A8389838B818F5F8B838B818A
:10167000803288F38C819D8129813A81FC013183FC
:1016800020838C819D81BC018DE494E00E94E40460
:101690008C819D81FC018281882F90E02F960FB66E
:1016A000F894DEBF0FBECDBFDF91CF910895CF93E9
:1016B000DF9300D0CDB7DEB780915204873018F0A9
:1016C0008FEF9FEF74C010924A0410924904109259
:1016D000520410924E0410924D0410925004109235
:1016E0004F04109251048FE090E00E942A139093CF
:1016F0004A04809349048091490490914A042091BE
:101700005204FC012283822F8F5F809352048091C8
:10171000490490914A04FC018281882F90E0209135
:10172000490430914A04880F991F8D5A9B4FFC0140
:10173000318320838091490490914A04FC011782EF
:1017400016828091490490914A04FC01118610860A
:101750008091490490914A04FC01128680914904C9
:1017600090914A04FC0113828091490490914A04AB
:10177000FC01168615868091490490914A04FC016B
:10178000148613868FE798E090934C0480934B0463
:101790001A821982CE0101969C0140E850E065E072
:1017A00070E085ED99E00E94620A80E090E00F9081
:1017B0000F90DF91CF9108951F920F9200905F00DC
:1017C0000F9211242F938F939F93EF93FF93CF93B7
:1017D000DF9300D000D0CDB7DEB780EC90E0FC0105
:1017E00080818A8386EC90E0FC0180818B8310925B
:1017F0005F048B81813619F481E080935F048A81D4
:1018000088718983809146048F5F8F718C8380916A
:1018100047049C81981719F482E089830BC08C815E
:10182000809346048C81882F90E08C5D9B4F2B81A8
:10183000FC0120838981809348040F900F900F90C2
:101840000F90DF91CF91FF91EF919F918F912F9109
:101850000F9000925F000F901F9018951F920F92AB
:1018600000905F000F9211242F933F938F939F93CB
:10187000EF93FF93CF93DF931F92CDB7DEB7909195
:101880004404809145049817A1F0809145048F5F2E
:101890008F71898389818093450486EC90E029814A
:1018A000222F30E02C5F3B4FF9012081FC01208387
:1018B00009C081EC90E021EC30E0F90120812F7D1E
:1018C000FC0120830F90DF91CF91FF91EF919F91C9
:1018D0008F913F912F910F9000925F000F901F907A
:1018E0001895CF93DF9300D0CDB7DEB79A83898365
:1018F000109244041092450410924604109247043A
:1019000089819A81992354F480EC90E022E0FC01D3
:10191000208389819A819F779A83898385EC90E0DF
:1019200029813A81232F3327FC01208384EC90E026
:101930002981FC01208381EC90E028E9FC012083CF
:1019400082EC90E026E0FC0120830F900F90DF9165
:10195000CF910895CF93DF9300D0CDB7DEB79091AC
:10196000460480914704981719F480E091E01BC069
:10197000809147048F5F8F718983898180934704A9
:101980008981882F90E08C5D9B4FFC0180818A8348
:1019900080914804882F90E0382F22278A81882F51
:1019A00090E0820F931F0F900F90DF91CF910895D9
:1019B000CF93DF9300D0CDB7DEB78A838091440404
:1019C0008F5F8F71898300008091450499819817FA
:1019D000D9F38981882F90E08C5F9B4F2A81FC018D
:1019E000208389818093440481EC90E021EC30E0F5
:1019F000F90120812062FC0120830F900F90DF917C
:101A0000CF910895CF93DF9300D0CDB7DEB79A83FF
:101A100089830DC089819A81FC018081282F898169
:101A20009A8101969A838983822F0E94D80C89819A
:101A30009A81FC018081882369F70F900F90DF91D4
:101A4000CF9108951F93CF93DF9300D000D01F92C2
:101A5000CDB7DEB79D838C8303C0812F0E94D80C45
:101A60008C819D819A8389838C819D8101969D8340
:101A70008C8389819A81FC0114911B838B81182F9F
:101A8000112359F70F900F900F900F900F90DF9147
:101A9000CF911F910895CF93DF9300D01F92CDB7C0
:101AA000DEB789837B836A8389818A3019F48DE06C
:101AB0000E94D80C89810E94D80C80E090E00F90A1
:101AC0000F900F90DF91CF910895CF93DF93CDB713
:101AD000DEB780914604882F90E09C01215E3F4F45
:101AE00080914704882F90E0A901481B590BCA0137
:101AF0002FE130E0B9010E94CB12DF91CF91089520
:101B0000CF93DF93CDB7DEB780914704809346042F
:101B1000DF91CF910895CF92DF92EF92FF920F93D2
:101B20001F936B017C0120E030E040E05FE40E9405
:101B3000841087FD0EC020E030E040E05FE4C70184
:101B4000B6010E94400F0E94E2108B019C013058A8
:101B500006C0C701B6010E94E2108B019C01B801CA
:101B6000C9011F910F91FF90EF90DF90CF900895E2
:101B7000A4E0B0E0EEEBFDE00C94F5127C016A010C
:101B8000FC018081823008F44AC1FB0190819230CF
:101B900008F442C1843079F4943009F040C1F7016F
:101BA0009181FB018181981709F439C1AAEFEA2ECE
:101BB000A3E0FA2E34C1943009F42EC1923091F48E
:101BC000823009F02CC188E0F701DA0101900D9212
:101BD0008A95E1F7FB018181F70191818923FA015F
:101BE00081831CC1823009F417C1F701828193817E
:101BF000FB01A281B381F701048115812681378120
:101C0000FB0184809580A680B780FC01EA1BFB0B5A
:101C1000AF01F7FF04C0442755274E1B5F0B40322E
:101C200051050CF074C01E161F06B4F524013501D1
:101C3000042E04C076946794579447940A94D2F77C
:101C400049825A826B827C82412C512C320143940E
:101C500004C0440C551C661C771C4A95D2F741E021
:101C6000441A510861087108482059206A207B20D5
:101C7000812C912C5401839445284628472819F437
:101C8000812C912C540149805A806B807C8084285F
:101C90009528A628B72846C0EF2B09F443C0840F27
:101CA000951F28013901042E04C076946794579437
:101CB00047940A94D2F749825A826B827C82412CE3
:101CC000512C3201439404C0440C551C661C771CF3
:101CD0004A95D2F741E0441A510861087108402240
:101CE00051226222732201E010E020E030E045281A
:101CF0004628472819F400E010E0980149805A80EE
:101D00006B807C8004291529262937290BC0A81748
:101D1000B90724F4812C912C540104C0CD0100E0BA
:101D200010E09801F7014181FB015181451709F449
:101D300046C0442349F024013501401A510A620A81
:101D4000730A9301820104C0081919092A093B0981
:101D500037FD05C0F6011182938382830CC041E0F8
:101D6000F6014183938382833095209510950195E8
:101D70001F4F2F4F3F4F04831583268337830EC099
:101D8000880F991FAA1FBB1FF60184839583A68322
:101D9000B78382819381019793838283F601848143
:101DA0009581A681B781AC01BD01415051096109FE
:101DB00071094F3F5F4F6F4F7F4310F30CC0F60127
:101DC000418393838283080D191D2A1D3B1D0483C3
:101DD00015832683378383E0F60180834481558110
:101DE0006681778177FF1AC0DB01CA01817099276C
:101DF000AA27BB277695679557954795842B952BF2
:101E0000A62BB72B84839583A683B7838281938186
:101E100001969383828302C07B0101C07601C701D2
:101E20002496E0E10C941113A0E2B0E0EAE1FFE0B7
:101E30000C9403136D8F7E8F8F8F98A3298F3A8F09
:101E40004B8F5C8FBE016F5E7F4FCE014D960E941F
:101E5000FB11BE01675F7F4FCE0149960E94FB11C7
:101E6000AE014F5F5F4FBE01675F7F4FCE0141966E
:101E70000E94B80D0E943111A096E2E00C941F134D
:101E8000A0E2B0E0E6E4FFE00C9403136D8F7E8FD8
:101E90008F8F98A3298F3A8F4B8F5C8FBE016F5E17
:101EA0007F4FCE014D960E94FB11BE01675F7F4FB1
:101EB000CE0149960E94FB118A8591E089278A8785
:101EC000AE014F5F5F4FBE01675F7F4FCE0141960E
:101ED0000E94B80D0E943111A096E2E00C941F13ED
:101EE000A0E2B0E0E6E7FFE00C94F5126D8F7E8F84
:101EF0008F8F98A3298F3A8F4B8F5C8FBE016F5EB7
:101F00007F4FCE014D960E94FB11BE01675F7F4F50
:101F1000CE0149960E94FB119989923008F412C0B3
:101F20008985823008F41AC0943021F4823009F493
:101F3000B4C008C0843021F4923009F4AEC00EC0A1
:101F4000923051F481E02A899A85291301C080E0FA
:101F50008A8BCE014196A3C0823051F481E02A8958
:101F60009A85291301C080E08A87CE01099697C01F
:101F70008D889E88AF88B88C0D851E852F85388901
:101F8000E0E2F0E080E090E0DC01C12CD12C7601B1
:101F900040E050E0BA0180FE18C0400F511F621FA0
:101FA000731F8C0D9D1DAE1DBF1D412C512C320188
:101FB0004394401751076207730718F0412C512CC6
:101FC0003201840D951DA61DB71DCC0CDD1CEE1C29
:101FD000FF1C37FF02C06894C0F8000F111F221FBA
:101FE000331FB694A794979487943197A1F62B89C1
:101FF0003C89EB85FC852E0F3F1F2E5F3F4F3C83B6
:102000002B8321E0EA893A85E31301C020E02A838B
:10201000EB81FC810CC080FF05C0769567955795D4
:1020200047957068B695A795979587953196B7FDB2
:10203000F2CF9F010CC0880F991FAA1FBB1F77FD0D
:102040008160440F551F661F771F2150310900978B
:10205000A105E0E4BE0778F32B833C838C019D014E
:102060000F77112722273327003411052105310569
:1020700059F487FD09C0452B462B472B29F0805C7E
:102080009F4FAF4FBF4F80788D839E83AF83B887BC
:1020900083E08983CE01019602C08AEF93E00E941B
:1020A0003111A096E0E10C941113A8E1B0E0EBE54A
:1020B000F0E10C9403136D8B7E8B8F8B988F298BA3
:1020C0003A8B4B8B5C8BBE01675F7F4FCE01459691
:1020D0000E94FB11BE016F5F7F4FCE0141960E94AF
:1020E000FB118985823058F08981823040F0BE0131
:1020F0006F5F7F4FCE0109960E946A1201C08FEF79
:102100006896E2E00C941F13A8E1B0E0EAE8F0E181
:102110000C9403136D8B7E8B8F8B988F298B3A8B4E
:102120004B8B5C8BBE01675F7F4FCE0145960E9453
:10213000FB11BE016F5F7F4FCE0141960E94FB11E4
:102140008985823058F08981823040F0BE016F5F0E
:102150007F4FCE0109960E946A1201C08FEF6896E8
:10216000E2E00C941F13A8E1B0E0E9EBF0E10C947D
:1021700003136D8B7E8B8F8B988F298B3A8B4B8BB8
:102180005C8BBE01675F7F4FCE0145960E94FB11BD
:10219000BE016F5F7F4FCE0141960E94FB11898582
:1021A000823058F08981823040F0BE016F5F7F4FEE
:1021B000CE0109960E946A1201C081E06896E2E0B1
:1021C0000C941F13ACE0B0E0E8EEF0E10C940113C6
:1021D00069877A878B879C87BE016F5F7F4FCE01AF
:1021E00009960E94FB118981823091F1823080F141
:1021F000843041F48A81882331F100E010E020E04E
:1022000030E829C02B813C8137FD22C02F313105B8
:102210008CF78EE190E0821B930B0D811E812F8144
:10222000388504C036952795179507958A95D2F776
:102230008A81882381F030952095109501951F4F54
:102240002F4F3F4F08C00FEF1FEF2FEF3FE703C0A7
:1022500000E010E09801B801C9012C96E4E00C946C
:102260001D130F931F93CF93DF93DC0114964D91B1
:102270005D916D917C9117971196EC9111978C91CE
:10228000823020F460618FEF90E0A6C0843009F4C2
:102290009EC0823009F495C0411551056105710554
:1022A00009F492C012962D913C91139722388FEF2A
:1022B00038070CF058C0C2E8DFEFC21BD30BCA319D
:1022C000D1056CF58A019B010C2E04C0369527952B
:1022D000179507950A94D2F781E090E0A0E0B0E06E
:1022E0000C2E04C0880F991FAA1FBB1F0A94D2F797
:1022F0000197A109B10984239523A623B72341E0BF
:1023000050E060E070E0892B8A2B8B2B19F440E0C1
:1023100050E0BA01402B512B622B732B03C040E0DD
:1023200050E0BA01DB01CA018F779927AA27BB27A2
:1023300080349105A105B10539F447FF09C0405C1F
:102340005F4F6F4F7F4F04C0415C5F4F6F4F7F4FB8
:1023500081E090E041155105610520E4720748F5E0
:1023600080E090E026C0203831058CF5DB01CA0101
:102370008F779927AA27BB2780349105A105B1053E
:1023800039F447FF09C0405C5F4F6F4F7F4F04C077
:10239000415C5F4F6F4F7F4F77FD04C0C90181588B
:1023A0009F4F07C07695679557954795C901805807
:1023B0009F4F97E076956795579547959A95D1F7F2
:1023C0000BC080E090E005C080E090E005C08FEF9A
:1023D00090E040E050E0BA01982F9695E0FB97F925
:1023E000362F80FB37F9642F752F832FDF91CF9124
:1023F0001F910F910895CF92DF92EF92DC01FB01C4
:10240000CC901196DC90119712968C9112973FE721
:10241000E32EE8226E2DA60170E0982F991F9927D0
:10242000991F13962C91822F880F892B90E027FB00
:10243000222720F92183009729F5411551056105CF
:10244000710511F482E027C082E89FEF93838283B5
:1024500027E0440F551F661F771F2A95D1F783E0A9
:10246000808309C0440F551F661F771F82819381A7
:1024700001979383828341155105610580E47807B4
:1024800088F320C08F3F910579F44115510561050E
:10249000710519F484E0808319C0E4FE03C081E073
:1024A000808310C010820EC08F579109938382835E
:1024B00083E0808387E0440F551F661F771F8A954E
:1024C000D1F770644483558366837783EF90DF9000
:1024D000CF900895CF93FC01DB019081923008F4F6
:1024E00052C08C91823008F44EC0943071F4843024
:1024F00039F411962C9130E08181281B310948C0B4
:102500008181882309F43FC03BC0843029F41196AF
:102510008C91811138C034C0923019F48230B9F7EF
:1025200035C0823069F3C18111968C911197C8131F
:102530001DC02281338112968D919C911397821731
:1025400093070CF413C0281739070CF417C0448103
:1025500055816681778114968D919D910D90BC91E6
:10256000A02D84179507A607B70718F4C11108C056
:102570000AC0481759076A077B0740F4C11103C016
:102580002FEF3FEF05C021E030E002C020E030E057
:10259000C901CF91089597FB072E16F4009407D038
:1025A00077FD09D00E94DF1207FC05D03EF490951C
:1025B00081959F4F0895709561957F4F0895AA1B4F
:1025C000BB1B51E107C0AA1FBB1FA617B70710F01E
:1025D000A61BB70B881F991F5A95A9F78095909550
:1025E000BC01CD0108952F923F924F925F926F925E
:1025F0007F928F929F92AF92BF92CF92DF92EF9293
:10260000FF920F931F93CF93DF93CDB7DEB7CA1B13
:10261000DB0B0FB6F894DEBF0FBECDBF09942A883E
:10262000398848885F846E847D848C849B84AA84E6
:10263000B984C884DF80EE80FD800C811B81AA8173
:10264000B981CE0FD11D0FB6F894DEBF0FBECDBF3E
:10265000ED0108950F931F93CF93DF93823091057F
:1026600010F482E090E0E0916204F091630420E0D5
:1026700030E0C0E0D0E023C04081518148175907C5
:10268000A8F04817590761F482819381209719F0C7
:102690009B838A832EC0909363048093620429C035
:1026A0002115310529F04217530710F0A90102C086
:1026B000BE01DF0102811381EF019A01F801309719
:1026C000D9F62115310509F1281B390B24303105C4
:1026D00090F412968D919C9113976115710521F0DC
:1026E000FB019383828304C090936304809362040C
:1026F000FD01329644C0FD01E20FF31F81939193D7
:10270000225031092D933C933AC0209160043091BE
:102710006104232B41F42091100130911101309379
:1027200061042093600420910E0130910F01211566
:10273000310541F42DB73EB740911201509113017C
:10274000241B350BE0916004F0916104E217F3075C
:10275000A0F42E1B3F0B2817390778F0AC014E5F11
:102760005F4F2417350748F04E0F5F1F50936104E9
:10277000409360048193919302C0E0E0F0E0CF01C8
:10278000DF91CF911F910F910895EF92FF920F93D8
:102790001F93CF93DF93009709F48EC0DC0112974B
:1027A00013961C921E921297E0906204F0906304BC
:1027B000E114F10489F42D913C911197280F391FF0
:1027C00080916004909161048217930789F5B0931A
:1027D0006104A093600470C0E70120E030E001C014
:1027E000EA01CA17DB0738F44A815B819E01411573
:1027F0005105B1F722C0AC0142505109FA01D3830F
:10280000C28300811181BC01600F711F6C177D07AD
:1028100061F468817981600F711F6E5F7F4F7183F2
:1028200060836A817B81738362832115310529F47A
:10283000B0936304A09362043FC0F901B383A28301
:10284000E90149915991C40FD51FAC17BD0771F427
:10285000DC019E918E91840F951F02969183808357
:1028600012968D919C91139793838283A0E0B0E0A0
:1028700002C0D7017C01F701828193810097C9F7DB
:10288000C701029620813181820F931F209160043D
:10289000309161042817390779F4109729F41092C0
:1028A00063041092620404C013961C921E92129745
:1028B000F0926104E0926004CDB7DEB7E6E00C94DC
:1028C0001B13A2E0B0E0E7E6F4E10C940313FE0171
:1028D000379661917191FA83E983AF018091660423
:1028E000909167040E94A7142296E2E00C941F13B3
:1028F0000F931F93CF93DF938C01E0916604F091C7
:102900006704838181FF1BC0C0E0D0E005C009954A
:10291000892B11F0CFEFDFEFF80181918F016091EA
:10292000660470916704DB011896ED91FC9119978C
:102930008111EDCF8AE00995892B09F402C0CFEF10
:10294000DFEFCE01DF91CF911F910F910895ACE0A1
:10295000B0E0EDEAF4E10C94F3127C016B018A0122
:10296000FC0117821682838181FFC7C1882483946A
:10297000912C8C0E9D1EF7019381F60193FD85919C
:1029800093FF81916F01882309F4B3C1853239F433
:1029900093FD859193FF81916F01853229F4B701F1
:1029A00090E00E949A16E7CF712C312C20E0203263
:1029B000A8F48B3261F028F4803251F0833271F444
:1029C0000BC08D3239F0803349F4216028C0226079
:1029D000246025C0286023C0206121C027FD27C0B6
:1029E000382F30533A3078F426FF06C0FAE07F9E45
:1029F000300D1124732E13C08AE0389E300D11243F
:102A0000332E20620CC08E3221F426FD72C1206468
:102A100006C08C3611F4206802C0883641F4F601F5
:102A200093FD859193FF81916F018111C0CF982F04
:102A30009554933018F09052933028F40C5F1F4F48
:102A4000FFE3F9830DC0833631F0833771F08335AE
:102A500009F05EC023C0F801808189830E5F1F4F9B
:102A600066246394712C540115C02801F2E04F0EC6
:102A7000511CF801A080B18026FF03C0672D70E0D3
:102A800002C06FEF7FEFC5012C870E948F163C01BB
:102A900082012C856FE7262E222218C02801F2E041
:102AA0004F0E511CF801A080B18026FF03C0672D96
:102AB00070E002C06FEF7FEFC5012C870E94841683
:102AC0003C012C8550E8252E222A820123FC1CC0C3
:102AD00006C0B70180E290E00E949A163A94832DD6
:102AE00090E068167906A8F30FC0F50127FC8591E0
:102AF00027FE81915F01B70190E00E949A16311084
:102B00003A94F1E06F1A71086114710471F7EEC024
:102B1000843611F0893641F5F80127FF07C060813E
:102B20007181828193810C5F1F4F08C06081718128
:102B3000882777FD8095982F0E5F1F4F4FE6642EF4
:102B4000622297FF09C090958095709561957F4F9F
:102B50008F4F9F4FF0E86F2A2AE030E0A4010E94D7
:102B6000C616A82EA81844C0853731F43FEEB32E00
:102B7000B2222AE030E024C099EFB92EB2228F367B
:102B8000B9F020F4883509F0B4C00DC0803721F0C9
:102B9000883709F0AEC002C020E1B22AB4FE0BC0F3
:102BA00084E0B82A08C024FF09C0E6E0BE2A06C0B7
:102BB00028E030E005C020E130E002C020E132E052
:102BC000F801B7FE07C060817181828193810C5F3B
:102BD0001F4F06C06081718180E090E00E5F1F4F43
:102BE000A4010E94C616A82EA8188FE7682E6B2095
:102BF00066FE0BC0362D3E7FA71450F464FE0AC05B
:102C000062FC08C0362D3E7E05C0BA2C362D03C0AE
:102C1000BA2C01C0B72C34FF0DC0FE01EA0DF11D26
:102C20008081803311F4397E09C032FF06C0B3942D
:102C3000B39404C0832F867809F0B39433FD14C095
:102C400030FF0FC07A2CB31460F4730C7B18B32CD4
:102C500008C0B70180E290E03C870E949A16B394C6
:102C60003C85B314B0F304C0B31410F43B1801C096
:102C7000312C34FF12C0B70180E390E03C870E9402
:102C80009A163C8532FF1EC031FF03C088E590E0F4
:102C900002C088E790E0B7010CC0832F867891F0DE
:102CA00031FD02C080E201C08BE237FD8DE2B70149
:102CB00090E00E949A1606C0B70180E390E00E945F
:102CC0009A167A94A714C0F3AA94F401EA0DF11DA0
:102CD000B701808190E00E949A16A110F5CF06C03E
:102CE000B70180E290E00E949A163A943110F8CF32
:102CF00042CEF7012681378102C02FEF3FEFC90195
:102D00002C96E2E10C940F13FC0105906150704089
:102D10000110D8F7809590958E0F9F1F0895FC01A4
:102D20006150704001900110D8F7809590958E0FFA
:102D30009F1F08950F931F93CF93DF938C01EB0197
:102D40008B8181FD03C00FEF1FEF1AC082FF0DC002
:102D50002E813F818C819D812817390764F4E88199
:102D6000F9810193F983E88306C0E885F985802F0E
:102D70000995892B41F78E819F8101969F838E83D0
:102D8000C801DF91CF911F910F910895FA01AA27F1
:102D9000283051F1203181F1E8946F936E7F6E5F9E
:102DA0007F4F8F4F9F4FAF4FB1E03ED0B4E03CD04C
:102DB000670F781F891F9A1FA11D680F791F8A1F2F
:102DC000911DA11D6A0F711D811D911DA11D20D096
:102DD00009F468943F912AE0269F11243019305D50
:102DE0003193DEF6CF010895462F4770405D419341
:102DF000B3E00FD0C9F7F6CF462F4F70405D4A338E
:102E000018F0495D31FD4052419302D0A9F7EACF55
:102E1000B4E0A6959795879577956795BA95C9F784
:102E200000976105710508959B01AC010A2E069477
:102E30005795479537952795BA95C9F7620F731F30
:0C2E4000841F951FA01D0895F894FFCF7B
:102E4C0000000002000000004B0D0000000000001C
:102E5C006A0420005468726561642025643A20720B
:102E6C00756E6E696E672E2E2E0A0054687265613F
:102E7C0064206172673D2025640A004974657261A3
:102E8C0074696F6E206E756D6265723D2025640AE3
:102E9C0000415652205363686564756C6572004935
:102EAC006E697469616C697A696E672053636865D1
:102EBC0064756C65722E2E2E00446F6E650054681E
:102ECC0072656164204120637265617465640054AD
:102EDC006872656164204220637265617465640088
:102EEC005468726561642043206372656174656423
:102EFC00005768696C652831293A4D61696E005438
:102F0C007279696E6720746F206C6F616420612028
:102F1C006E6F6E206578697374696E6720636F6E6F
:102F2C0074657874203F20007969656C6400707258
:102F3C00696F72696461646520646F2072756E6E6E
:102F4C00696E67206D656E6F722071756520646F98
:102F5C002068656164206461206C6973746120640D
:102F6C0065207265616479006A6F696E0066696ECE
:102F7C006973682072656164792E73697A65203E85
:102F8C0020300052554E4E494E470052454144594F
:102F9C000057414954494E470046494E4953484908
:102FAC004E47004552524F52005448524541445FDF
:102FBC005052494F524954595F54494D455F435201
:102FCC0049544943414C005448524541445F505286
:102FDC00494F524954595F48494748455354005446
:102FEC0048524541445F5052494F524954595F41F0
:102FFC00424F56455F4E4F524D414C00544852453E
:10300C0041445F5052494F524954595F4E4F524DB3
:10301C00414C005448524541445F5052494F52492B
:10302C0054595F42454C4F575F4E4F524D414C00E7
:10303C005448524541445F5052494F524954595F8C
:10304C004C4F574553540074687265616420494471
:10305C003A202564097072696F726974793A202577
:10306C00730973746174653A2025730A0072657371
:10307C0063686564756C65007072696F7269646110
:10308C0064652064612072756E6E696E67206D6177
:10309C00696F72206F7520696775616C20646F2091
:1030AC0071756520612068656164206461206C69BC
:1030BC00737461006C69737461206465207265615E
:1030CC00647920617475616C3A0A200072756E6EB9
:1030DC00696E672049443A2025640A007072696F52
:1030EC007269646164652064612072756E6E696ECC
:1030FC0067206D656E6F7220646F2071756520613D
:10310C002068656164206461206C6973746100706F
:10311C0072696F72696461646520646F20686561AF
:10312C0064206461206C697374613A2025640A0020
:10313C0069646C655F7461736B00000000000000D3
:02314C00000081
:00000001FF
